:100000000C9486000C94B7000C94B7000C94B700C5
:100010000C94B7000C94B7000C94B7000C94B70084
:100020000C94B7000C94B7000C94B7000C94B70074
:100030000C94B7000C94B7000C94B7000C94B70064
:100040000C94B7000C94B7000C94B7000C94B70054
:100050000C94B7000C94B7000C94B7000C94C9062C
:100060000C94B7000C9483030C9473040C94B700A5
:100070000C94B7000C94B7000C94B7000C94B70024
:100080000C94B7000C94B7000C94B7000C94B70014
:100090000C94B7030C94B2040C94B7000C94B70002
:1000A0000C94B7000C94B7000C94B7000C94B700F4
:1000B0000C94B7000C94B7000C94B7000C94B700E4
:1000C0000C94B7000C94B7000C94B7000C94EB039D
:1000D0000C94F1040C94B7000C941F040C9430059C
:1000E0000C94B7000C9452040C94DF020C94CF02D1
:1000F0000C9456020C941B030C9426030C94FB02E4
:100100000C94F7050C94EF00EF00F70511241FBEC7
:10011000CFEFD1E2DEBFCDBF00E00CBF12E0A0E028
:10012000B2E0E8E4FFE000E00BBF02C007900D92F0
:10013000A033B107D9F724E0A0E3B2E001C01D92DB
:10014000A93EB207E1F710E0C6E8D0E000E006C043
:1001500021970109802FFE010E949A07C438D10718
:1001600080E00807A9F70E94C2020C9475070C945E
:10017000000040E855E260E070E08AE992E00E9409
:100180006F0566E072E08AE992E00E94B002109288
:10019000330210923202E0913002F091310210826B
:1001A00008956CE072E08AE992E00E949302609107
:1001B0003002709131028AE992E00E9493026DE16F
:1001C00072E08AE992E00E94B0021092330210922B
:1001D0003202E0913002F09131021082089580E005
:1001E00091E00E942901909331028093300208959A
:1001F0008AE992E00E94CF02892B51F18AE992E0CC
:100200000E94FB028A3011F08D3011F40C94D10061
:1002100020913202309133022F3F3105C8F44091D2
:10022000300250913102FA01E20FF31F8083809176
:1002300032029091330201969093330280933202FE
:100240002091300230913102F901E80FF91F10823C
:100250000895CF93DF938230910510F482E090E00F
:10026000E091E704F091E80420E030E0C0E0D0E065
:10027000309711F14081518148175907C0F0481754
:10028000590761F482819381209719F09B838A83B7
:100290002BC09093E8048093E70426C02115310514
:1002A00019F04217530718F49A01BE01DF01EF015C
:1002B0000280F381E02DDCCF2115310509F1281BE7
:1002C000390B2430310590F412968D919C9113973F
:1002D0006115710521F0FB019383828304C0909323
:1002E000E8048093E704FD01329644C0FD01E20F6B
:1002F000F31F81939193225031092D933C933AC07F
:100300002091E5043091E604232B41F42091020270
:10031000309103023093E6042093E504209100021B
:10032000309101022115310541F42DB73EB74091BE
:10033000040250910502241B350BE091E504F09175
:10034000E604E217F307A0F42E1B3F0B281739072A
:1003500078F0AC014E5F5F4F2417350748F04E0F21
:100360005F1F5093E6044093E5048193919302C08C
:10037000E0E0F0E0CF01DF91CF9108950F931F935C
:10038000CF93DF93009709F48CC0FC01329713825E
:1003900012820091E7041091E8040115110581F41F
:1003A00020813181820F931F2091E5043091E60472
:1003B0002817390779F5F093E604E093E50471C056
:1003C000D80140E050E0AE17BF0750F412962D91CF
:1003D0003C911397AD012115310509F1D901F3CFF6
:1003E0009D01DA013383228360817181860F971F1B
:1003F0008217930769F4EC0128813981260F371F92
:100400002E5F3F4F318320838A819B819383828338
:10041000452B29F4F093E804E093E70442C01396D7
:10042000FC93EE931297ED01499159919E01240F8F
:10043000351FE217F30771F480819181840F951FB6
:10044000029611969C938E938281938113969C932E
:100450008E931297E0E0F0E0D80112968D919C9176
:100460001397009719F0F8018C01F6CF8D919C91AC
:1004700098012E5F3F4F820F931F2091E50430912A
:10048000E6042817390769F4309729F41092E80434
:100490001092E70402C0138212821093E6040093C4
:1004A000E504DF91CF911F910F910895CF92DF92D4
:1004B000EF92FF920F931F93CF93DF936C01EB01A9
:1004C0007B01E40EF51E00E010E0CE15DF0561F0C3
:1004D0006991D601ED91FC910190F081E02DC6016A
:1004E0001995080F191FF1CFC801DF91CF911F9106
:1004F0000F91FF90EF90DF90CF90089561157105F7
:1005000079F0FB0101900020E9F73197AF01461B1C
:10051000570BDC01ED91FC910280F381E02D1994E1
:1005200080E090E008950C947E02DC01ED91FC9156
:100530000190F081E02D19940F931F93CF93DF93D7
:10054000EC016DE00E9495028C016AE0CE010E94F0
:100550009502800F911FDF91CF911F910F91089508
:100560000F931F93CF93DF93EC010E947E028C01C7
:10057000CE010E949C02800F911FDF91CF911F91AD
:100580000F9108950E9413070E94B900C2E5D4E0BC
:100590000E94F8002097E1F30E945204F9CFFC0179
:1005A00024853585F901E05CFF4F80819181329689
:1005B00020813181821B930B8F7399270895DC0171
:1005C0001C96ED91FC911D97DF01A05CBF4F2D9112
:1005D0003C91119712968D919C911197281739078C
:1005E00039F08D919C91E80FF91F808190E008957A
:1005F0008FEF9FEF0895FC01A485B585FD01E05CB8
:10060000FF4F2081318132968081918128173907EF
:1006100079F080819181A80FB91F8C91208131815F
:100620002F5F3F4F2F7333273183208390E008954E
:100630008FEF9FEF0895FC0181A1882329F0A48901
:10064000B5898C9186FFFBCF11A208950F931F935C
:10065000CF93DF93FC01A685B7858D01005C1F4F0A
:10066000E8018881998101968F739927AD014E5BCE
:100670005F4FEA012881398182179307D1F3E8019E
:1006800028813981A20FB31F6C93A685B785A05C22
:10069000BF4F11969C938E93A689B7892C9181E0C8
:1006A00090E0078C02C0880F991F0A94E2F7822B12
:1006B0008C9381E081A30488F589E02D808180649A
:1006C000808381E090E0DF91CF911F910F91089599
:1006D000FB01E05CFF4F208131812F5F3F4F2F7383
:1006E0003327DB01AE5BBF4F4D915C91241735077B
:1006F00041F040815181DB01A40FB51F8C93318300
:100700002083089508951F920F920FB60F9211241F
:100710000BB60F922F933F934F935F936F937F93FB
:100720008F939F93AF93BF93EF93FF938091C000FC
:1007300082FD07C08091C60068E974E00E946803EA
:1007400002C08091C600FF91EF91BF91AF919F9140
:100750008F917F916F915F914F913F912F910F906A
:100760000BBE0F900FBE0F901F90189508951F920B
:100770000F920FB60F9211240BB60F922F933F9347
:100780004F935F936F937F938F939F93AF93BF9399
:10079000EF93FF938091C80082FD07C08091CE0047
:1007A00060E174E00E94680302C08091CE00FF9176
:1007B000EF91BF91AF919F918F917F916F915F91D9
:1007C0004F913F912F910F900BBE0F900FBE0F9046
:1007D0001F90189508951F920F920FB60F92112433
:1007E0000BB60F922F933F934F935F936F937F932B
:1007F0008F939F93AF93BF93EF93FF938091D0001C
:1008000082FD07C08091D60068E873E00E9468030B
:1008100002C08091D600FF91EF91BF91AF919F915F
:100820008F917F916F915F914F913F912F910F9099
:100830000BBE0F900FBE0F901F90189508951F923A
:100840000F920FB60F9211240BB60F922F933F9376
:100850004F935F936F937F938F939F93AF93BF93C8
:10086000EF93FF938091300182FD07C080913601A4
:1008700060E073E00E94680302C080913601FF913E
:10088000EF91BF91AF919F918F917F916F915F9108
:100890004F913F912F910F900BBE0F900FBE0F9075
:1008A0001F9018958AE992E00E94CF02892B11F0DF
:1008B0000E94820388E792E00E94CF02892B11F008
:1008C0000E94B60386E592E00E94CF02892B11F0C8
:1008D0000E94EA0384E392E00E94CF02892B11F088
:1008E0000C941E0408951F920F920FB60F921124BC
:1008F0000BB60F922F933F938F939F93EF93FF939A
:1009000020919404309195048091960490919704DD
:100910002817390731F48091C1008F7D8093C10081
:1009200014C0E0919604F0919704EC5AFB4F20819B
:10093000809196049091970401968F7399279093D4
:100940009704809396042093C600FF91EF919F91A6
:100950008F913F912F910F900BBE0F900FBE0F9074
:100960001F9018951F920F920FB60F9211240BB67D
:100970000F922F933F938F939F93EF93FF93209129
:100980000C0430910D0480910E0490910F042817EF
:10099000390731F48091C9008F7D8093C90014C05C
:1009A000E0910E04F0910F04E453FC4F20818091FC
:1009B0000E0490910F0401968F73992790930F0462
:1009C00080930E042093CE00FF91EF919F918F9121
:1009D0003F912F910F900BBE0F900FBE0F901F9065
:1009E00018951F920F920FB60F9211240BB60F920B
:1009F0002F933F938F939F93EF93FF9320918403C3
:100A000030918503809186039091870328173907D9
:100A100031F48091D1008F7D8093D10014C0E0919A
:100A20008603F0918703EC5BFC4F20818091860365
:100A30009091870301968F739927909387038093F2
:100A400086032093D600FF91EF919F918F913F9164
:100A50002F910F900BBE0F900FBE0F901F90189507
:100A60001F920F920FB60F9211240BB60F922F9375
:100A70003F938F939F93EF93FF932091FC023091CC
:100A8000FD028091FE029091FF022817390731F490
:100A9000809131018F7D8093310114C0E091FE027D
:100AA000F091FF02E454FD4F20818091FE0290916D
:100AB000FF0201968F7399279093FF028093FE02A5
:100AC00020933601FF91EF919F918F913F912F914C
:100AD0000F900BBE0F900FBE0F901F901895CF92E6
:100AE000DF92EF92FF920F931F93CF93DF93EC016E
:100AF0006A017B014115514E6105710509F1EC89CF
:100B0000FD8981E090E008A002C0880F991F0A9437
:100B1000E2F7808360E079E08DE390E0A701960141
:100B20000E94780789019A010150110921093109B0
:100B30003695279517950795980101151041A8F04E
:100B4000EC89FD89108260E874E88EE190E0A701ED
:100B500096010E947807DA01C9010197A109B1093C
:100B6000B695A795979587959C01E889F989308373
:100B7000EA89FB89208319A2EE89FF89408181E0FF
:100B800090E09C010C8C02C0220F331F0A94E2F704
:100B9000242B2083EE89FF8940819C010D8C02C0AB
:100BA000220F331F0A94E2F7242B2083EE89FF895A
:100BB00040819C010E8C02C0220F331F0A94E2F781
:100BC000242B2083EE89FF8920810F8C02C0880F9F
:100BD000991F0A94E2F7809582238083DF91CF9159
:100BE0001F910F91FF90EF90DF90CF900895CF92DB
:100BF000DF92EF92FF92EAE9F2E01382128288EE2E
:100C0000C82E83E0D82EE12CF12CC482D582E68256
:100C1000F78263E272E07183608388E994E09587EC
:100C2000848784E594E09787868785EC90E0918BB4
:100C3000808B84EC90E0938B828B80EC90E0958BA2
:100C4000848B81EC90E0978B868B82EC90E0918F87
:100C5000808F86EC90E0938F828F44E0448F33E066
:100C6000358F27E0268F95E0978F81E080A3E8E716
:100C7000F2E013821282C482D582E682F782718307
:100C80006083A0E1B4E0B587A487ACECB3E0B7879C
:100C9000A687ADECB0E0B18BA08BACECB0E0B38B31
:100CA000A28BA8ECB0E0B58BA48BA9ECB0E0B78B1D
:100CB000A68BAAECB0E0B18FA08FAEECB0E0B38F02
:100CC000A28F448F358F268F978F80A3E6E5F2E0C1
:100CD00013821282C482D582E682F7827183608396
:100CE000A8E8B3E0B587A487A4E4B3E0B787A687F4
:100CF000A5EDB0E0B18BA08BA4EDB0E0B38BA28BDF
:100D0000A0EDB0E0B58BA48BA1EDB0E0B78BA68BC6
:100D1000A2EDB0E0B18FA08FA6EDB0E0B38FA28FAF
:100D2000448F358F268F978F80A3E4E3F2E0138200
:100D30001282C482D582E682F7827183608360E08A
:100D400073E0758764876CEB72E07787668765E38D
:100D500071E0718B608B64E371E0738B628B60E395
:100D600071E0758B648B61E371E0778B668B62E376
:100D700071E0718F608F66E371E0738F628F448FD3
:100D8000358F268F978F80A3FF90EF90DF90CF90C5
:100D900008951F920F920FB60F9211242F933F9335
:100DA0008F939F93AF93BF938091DD049091DE0466
:100DB000A091DF04B091E0043091DC0423E0230F24
:100DC0002D3720F40196A11DB11D05C026E8230F83
:100DD0000296A11DB11D2093DC048093DD04909345
:100DE000DE04A093DF04B093E0048091E1049091CD
:100DF000E204A091E304B091E4040196A11DB11DA9
:100E00008093E1049093E204A093E304B093E4049C
:100E1000BF91AF919F918F913F912F910F900FBEF6
:100E20000F901F901895789484B5826084BD84B526
:100E3000816084BD85B5826085BD85B5816085BDD5
:100E4000EEE6F0E0808181608083E1E8F0E01082EE
:100E5000808182608083808181608083E0E8F0E02F
:100E6000808181608083E1EBF0E080818460808319
:100E7000E0EBF0E0808181608083E1E9F0E0808157
:100E800082608083808181608083E0E9F0E08081FE
:100E900081608083E1EAF0E08081826080838081EC
:100EA00081608083E0EAF0E0808181608083E1E21C
:100EB000F1E0808182608083808181608083E0E2D4
:100EC000F1E0808181608083EAE7F0E080818460E6
:100ED0008083808182608083808181608083808143
:100EE000806880831092C1000895F8940C94A20742
:100EF000A1E21A2EAA1BBB1BFD010DC0AA1FBB1F1E
:100F0000EE1FFF1FA217B307E407F50720F0A21B8F
:100F1000B30BE40BF50B661F771F881F991F1A94FC
:100F200069F760957095809590959B01AC01BD0126
:100F3000CF010895EE0FFF1F881F8BBF0790F6911A
:080F4000E02D1994F894FFCF95
:100F48000000E90480007374617274004172647572
:100F5800696E6F2052656369657665643A5F000063
:100F680000000026035602CF02FB02DF021B03002B
:00000001FF
